{
  "_format": "hh-sol-artifact-1",
  "contractName": "OTCSwap",
  "sourceName": "contracts/OTCSwap5.sol",
  "abi": [
    {
      "inputs": [],
      "stateMutability": "nonpayable",
      "type": "constructor"
    },
    {
      "inputs": [],
      "name": "ReentrancyGuardReentrantCall",
      "type": "error"
    },
    {
      "inputs": [
        {
          "internalType": "address",
          "name": "token",
          "type": "address"
        }
      ],
      "name": "SafeERC20FailedOperation",
      "type": "error"
    },
    {
      "anonymous": false,
      "inputs": [
        {
          "indexed": true,
          "internalType": "uint256",
          "name": "orderId",
          "type": "uint256"
        },
        {
          "indexed": false,
          "internalType": "string",
          "name": "reason",
          "type": "string"
        },
        {
          "indexed": false,
          "internalType": "uint256",
          "name": "timestamp",
          "type": "uint256"
        }
      ],
      "name": "CleanupError",
      "type": "event"
    },
    {
      "anonymous": false,
      "inputs": [
        {
          "indexed": true,
          "internalType": "address",
          "name": "recipient",
          "type": "address"
        },
        {
          "indexed": false,
          "internalType": "uint256",
          "name": "amount",
          "type": "uint256"
        },
        {
          "indexed": false,
          "internalType": "uint256",
          "name": "timestamp",
          "type": "uint256"
        }
      ],
      "name": "CleanupFeesDistributed",
      "type": "event"
    },
    {
      "anonymous": false,
      "inputs": [
        {
          "indexed": true,
          "internalType": "uint256",
          "name": "orderId",
          "type": "uint256"
        },
        {
          "indexed": true,
          "internalType": "address",
          "name": "maker",
          "type": "address"
        },
        {
          "indexed": false,
          "internalType": "uint256",
          "name": "timestamp",
          "type": "uint256"
        }
      ],
      "name": "OrderCanceled",
      "type": "event"
    },
    {
      "anonymous": false,
      "inputs": [
        {
          "indexed": true,
          "internalType": "uint256",
          "name": "orderId",
          "type": "uint256"
        },
        {
          "indexed": true,
          "internalType": "address",
          "name": "maker",
          "type": "address"
        },
        {
          "indexed": false,
          "internalType": "uint256",
          "name": "timestamp",
          "type": "uint256"
        }
      ],
      "name": "OrderCleanedUp",
      "type": "event"
    },
    {
      "anonymous": false,
      "inputs": [
        {
          "indexed": true,
          "internalType": "uint256",
          "name": "orderId",
          "type": "uint256"
        },
        {
          "indexed": true,
          "internalType": "address",
          "name": "maker",
          "type": "address"
        },
        {
          "indexed": true,
          "internalType": "address",
          "name": "taker",
          "type": "address"
        },
        {
          "indexed": false,
          "internalType": "address",
          "name": "sellToken",
          "type": "address"
        },
        {
          "indexed": false,
          "internalType": "uint256",
          "name": "sellAmount",
          "type": "uint256"
        },
        {
          "indexed": false,
          "internalType": "address",
          "name": "buyToken",
          "type": "address"
        },
        {
          "indexed": false,
          "internalType": "uint256",
          "name": "buyAmount",
          "type": "uint256"
        },
        {
          "indexed": false,
          "internalType": "uint256",
          "name": "timestamp",
          "type": "uint256"
        },
        {
          "indexed": false,
          "internalType": "uint256",
          "name": "orderCreationFee",
          "type": "uint256"
        }
      ],
      "name": "OrderCreated",
      "type": "event"
    },
    {
      "anonymous": false,
      "inputs": [
        {
          "indexed": true,
          "internalType": "uint256",
          "name": "orderId",
          "type": "uint256"
        },
        {
          "indexed": true,
          "internalType": "address",
          "name": "maker",
          "type": "address"
        },
        {
          "indexed": true,
          "internalType": "address",
          "name": "taker",
          "type": "address"
        },
        {
          "indexed": false,
          "internalType": "address",
          "name": "sellToken",
          "type": "address"
        },
        {
          "indexed": false,
          "internalType": "uint256",
          "name": "sellAmount",
          "type": "uint256"
        },
        {
          "indexed": false,
          "internalType": "address",
          "name": "buyToken",
          "type": "address"
        },
        {
          "indexed": false,
          "internalType": "uint256",
          "name": "buyAmount",
          "type": "uint256"
        },
        {
          "indexed": false,
          "internalType": "uint256",
          "name": "timestamp",
          "type": "uint256"
        }
      ],
      "name": "OrderFilled",
      "type": "event"
    },
    {
      "anonymous": false,
      "inputs": [
        {
          "indexed": true,
          "internalType": "uint256",
          "name": "oldOrderId",
          "type": "uint256"
        },
        {
          "indexed": true,
          "internalType": "uint256",
          "name": "newOrderId",
          "type": "uint256"
        },
        {
          "indexed": true,
          "internalType": "address",
          "name": "maker",
          "type": "address"
        },
        {
          "indexed": false,
          "internalType": "uint256",
          "name": "tries",
          "type": "uint256"
        },
        {
          "indexed": false,
          "internalType": "uint256",
          "name": "timestamp",
          "type": "uint256"
        }
      ],
      "name": "RetryOrder",
      "type": "event"
    },
    {
      "inputs": [],
      "name": "FEE_DAMPENING_FACTOR",
      "outputs": [
        {
          "internalType": "uint256",
          "name": "",
          "type": "uint256"
        }
      ],
      "stateMutability": "view",
      "type": "function"
    },
    {
      "inputs": [],
      "name": "GRACE_PERIOD",
      "outputs": [
        {
          "internalType": "uint256",
          "name": "",
          "type": "uint256"
        }
      ],
      "stateMutability": "view",
      "type": "function"
    },
    {
      "inputs": [],
      "name": "MAX_CLEANUP_BATCH",
      "outputs": [
        {
          "internalType": "uint256",
          "name": "",
          "type": "uint256"
        }
      ],
      "stateMutability": "view",
      "type": "function"
    },
    {
      "inputs": [],
      "name": "MAX_FEE_PERCENTAGE",
      "outputs": [
        {
          "internalType": "uint256",
          "name": "",
          "type": "uint256"
        }
      ],
      "stateMutability": "view",
      "type": "function"
    },
    {
      "inputs": [],
      "name": "MAX_RETRY_ATTEMPTS",
      "outputs": [
        {
          "internalType": "uint256",
          "name": "",
          "type": "uint256"
        }
      ],
      "stateMutability": "view",
      "type": "function"
    },
    {
      "inputs": [],
      "name": "MIN_FEE_PERCENTAGE",
      "outputs": [
        {
          "internalType": "uint256",
          "name": "",
          "type": "uint256"
        }
      ],
      "stateMutability": "view",
      "type": "function"
    },
    {
      "inputs": [],
      "name": "ORDER_EXPIRY",
      "outputs": [
        {
          "internalType": "uint256",
          "name": "",
          "type": "uint256"
        }
      ],
      "stateMutability": "view",
      "type": "function"
    },
    {
      "inputs": [],
      "name": "accumulatedFees",
      "outputs": [
        {
          "internalType": "uint256",
          "name": "",
          "type": "uint256"
        }
      ],
      "stateMutability": "view",
      "type": "function"
    },
    {
      "inputs": [
        {
          "internalType": "contract IERC20",
          "name": "token",
          "type": "address"
        },
        {
          "internalType": "address",
          "name": "to",
          "type": "address"
        },
        {
          "internalType": "uint256",
          "name": "amount",
          "type": "uint256"
        }
      ],
      "name": "attemptTransfer",
      "outputs": [],
      "stateMutability": "nonpayable",
      "type": "function"
    },
    {
      "inputs": [
        {
          "internalType": "uint256",
          "name": "orderId",
          "type": "uint256"
        }
      ],
      "name": "cancelOrder",
      "outputs": [],
      "stateMutability": "nonpayable",
      "type": "function"
    },
    {
      "inputs": [],
      "name": "cleanupExpiredOrders",
      "outputs": [],
      "stateMutability": "nonpayable",
      "type": "function"
    },
    {
      "inputs": [
        {
          "internalType": "address",
          "name": "taker",
          "type": "address"
        },
        {
          "internalType": "address",
          "name": "sellToken",
          "type": "address"
        },
        {
          "internalType": "uint256",
          "name": "sellAmount",
          "type": "uint256"
        },
        {
          "internalType": "address",
          "name": "buyToken",
          "type": "address"
        },
        {
          "internalType": "uint256",
          "name": "buyAmount",
          "type": "uint256"
        }
      ],
      "name": "createOrder",
      "outputs": [
        {
          "internalType": "uint256",
          "name": "",
          "type": "uint256"
        }
      ],
      "stateMutability": "payable",
      "type": "function"
    },
    {
      "inputs": [
        {
          "internalType": "uint256",
          "name": "orderId",
          "type": "uint256"
        }
      ],
      "name": "fillOrder",
      "outputs": [],
      "stateMutability": "nonpayable",
      "type": "function"
    },
    {
      "inputs": [],
      "name": "firstOrderId",
      "outputs": [
        {
          "internalType": "uint256",
          "name": "",
          "type": "uint256"
        }
      ],
      "stateMutability": "view",
      "type": "function"
    },
    {
      "inputs": [],
      "name": "nextOrderId",
      "outputs": [
        {
          "internalType": "uint256",
          "name": "",
          "type": "uint256"
        }
      ],
      "stateMutability": "view",
      "type": "function"
    },
    {
      "inputs": [],
      "name": "orderCreationFee",
      "outputs": [
        {
          "internalType": "uint256",
          "name": "",
          "type": "uint256"
        }
      ],
      "stateMutability": "view",
      "type": "function"
    },
    {
      "inputs": [
        {
          "internalType": "uint256",
          "name": "",
          "type": "uint256"
        }
      ],
      "name": "orders",
      "outputs": [
        {
          "internalType": "address",
          "name": "maker",
          "type": "address"
        },
        {
          "internalType": "address",
          "name": "taker",
          "type": "address"
        },
        {
          "internalType": "address",
          "name": "sellToken",
          "type": "address"
        },
        {
          "internalType": "uint256",
          "name": "sellAmount",
          "type": "uint256"
        },
        {
          "internalType": "address",
          "name": "buyToken",
          "type": "address"
        },
        {
          "internalType": "uint256",
          "name": "buyAmount",
          "type": "uint256"
        },
        {
          "internalType": "uint256",
          "name": "timestamp",
          "type": "uint256"
        },
        {
          "internalType": "enum OTCSwap.OrderStatus",
          "name": "status",
          "type": "uint8"
        },
        {
          "internalType": "uint256",
          "name": "orderCreationFee",
          "type": "uint256"
        },
        {
          "internalType": "uint256",
          "name": "tries",
          "type": "uint256"
        }
      ],
      "stateMutability": "view",
      "type": "function"
    },
    {
      "stateMutability": "payable",
      "type": "receive"
    }
  ],
  "bytecode": "0x6080806040523461001a5760015f556117b7908161001f8239f35b5f80fdfe608080604052600436101561001c575b50361561001a575f80fd5b005b5f3560e01c908163071c926e14611144575080632a58b33014611127578063514fcac714610fa6578063558e44d314610f8b578063587f5ed714610f6e57806366f2e3e014610f51578063679230f214610f3657806367b830ad14610bff5780636857bd1e14610b8d5780637c19c065146100e3578063817e1161146107c95780639008bae8146106fd578063a85c38ef1461071d578063b006c50814610702578063c1a287e2146106fd578063de57fb8a146100e85763e29b3521146100e3575f61000f565b611174565b60a03660031901126104d6576004356001600160a01b03811681036104d65761010f61115e565b606435906001600160a01b03821682036104d65761012b6112f4565b5a90600154605a81028115828204605a1481171561043157609683029283046096141715610431576064900434106106ca57606490043411610696576001600160a01b0381161561065c576001600160a01b0383161561062357604435156105e857608435156105ae576001600160a01b0381811690841614610570576040516370a0823160e01b81523360048201526020816024816001600160a01b0386165afa9081156104e2575f9161053e575b50604435116104ed57604051636eb1769f60e11b81523360048201523060248201526020816044816001600160a01b0386165afa9081156104e2575f916104ac575b506044351161045957610232346002546111ff565b60025561024c60443530336001600160a01b03851661123f565b600454936102598561120c565b60045560405193610269856111ac565b33855260018060a01b038216602086015260018060a01b0383166040860152604435606086015260018060a01b038116608086015260843560a08601524260c08601525f60e0860152346101008601525f610120860152855f52600560205260405f2060018060a01b038651166bffffffffffffffffffffffff60a01b90818354161782556001820160018060a01b03602089015116828254161790556002820160018060a01b036040890151168282541617905560608701516003830155600482019060018060a01b036080890151169082541617905560a0860151600582015560c0860151600682015560e08601519560038710156104455761012060099161037a6103f2996007860161121a565b61010081015160088501550151910155604080516001600160a01b03948516815260443560208201529184169082015260843560608201524260808201523460a0820152911690339085907f32e48404b8aee8cac1993c984d0b7088bfba77e0bddbe3047969e1b527724a709060c090a45a90611232565b60015490816009029160098304036104315761040d916111ff565b908160640291606483040361043157600a6020920460015560015f55604051908152f35b634e487b7160e01b5f52601160045260245ffd5b634e487b7160e01b5f52602160045260245ffd5b60405162461bcd60e51b815260206004820152602560248201527f496e73756666696369656e7420616c6c6f77616e636520666f722073656c6c206044820152643a37b5b2b760d91b6064820152608490fd5b90506020813d6020116104da575b816104c7602093836111dd565b810103126104d657518561021d565b5f80fd5b3d91506104ba565b6040513d5f823e3d90fd5b60405162461bcd60e51b815260206004820152602360248201527f496e73756666696369656e742062616c616e636520666f722073656c6c20746f60448201526235b2b760e91b6064820152608490fd5b90506020813d602011610568575b81610559602093836111dd565b810103126104d65751856101db565b3d915061054c565b60405162461bcd60e51b815260206004820152601660248201527521b0b73737ba1039bbb0b81039b0b6b2903a37b5b2b760511b6044820152606490fd5b60405162461bcd60e51b8152602060048201526012602482015271125b9d985b1a5908189d5e48185b5bdd5b9d60721b6044820152606490fd5b60405162461bcd60e51b8152602060048201526013602482015272125b9d985b1a59081cd95b1b08185b5bdd5b9d606a1b6044820152606490fd5b60405162461bcd60e51b815260206004820152601160248201527024b73b30b634b210313abc903a37b5b2b760791b6044820152606490fd5b60405162461bcd60e51b815260206004820152601260248201527124b73b30b634b21039b2b636103a37b5b2b760711b6044820152606490fd5b60405162461bcd60e51b815260206004820152600c60248201526b08ccaca40e8dede40d0d2ced60a31b6044820152606490fd5b60405162461bcd60e51b815260206004820152600b60248201526a46656520746f6f206c6f7760a81b6044820152606490fd5b61118f565b346104d6575f3660031901126104d657602060405160098152f35b346104d65760203660031901126104d6576004355f52600560205260405f2060018060a01b039081815416908260018201541690836002820154169360038201549060048301541660058301549060068401549260ff600786015416976009600887015496015496604051988952602089015260408801526060870152608086015260a085015260c08401526003841015610445576101409360e0840152610100830152610120820152f35b346104d6575f3660031901126104d6576107e16112f4565b5f600380545b600454811080610b7f575b80610b6a575b15610b6457805f526005602081815260405f209060018060a01b0392838354168015610b5057600684015462093a8081019081811161043157621275000180911161043157421115610a7e5760ff6007850154168781101561044557158015610a71575b15610a2557508360028401541693808454169487850154303b156104d6576040519163342bde8f60e11b835260048301526024968783015260448201525f8160648183305af190816109fa575b5061099e57505060015f863d1161098e575b6308c379a014610961575b6108df575b5050506108d79061120c565b905b906107e7565b6108ea959395611496565b5060405192604084019084821067ffffffffffffffff83111761094e5750926108d7949274151bdad95b881d1c985b9cd9995c8819985a5b1959605a1b61093f936109459660405260158452830152876114d5565b906111ff565b929084806108cb565b634e487b7160e01b5f9081526041600452fd5b610969611425565b80610975575b506108c6565b96610987915061093f5f9885886114d5565b958761096f565b5060045f803e5f5160e01c6108bb565b859450916108d795926109d9859960087f1491961bd18bcd6935b573c2502bc912f8a2f44f5c3ca2977c662a4d0486f04e95970154906111ff565b98541693835f5281526109ee60405f206113ea565b604051428152a361120c565b67ffffffffffffffff8111610a1257604052896108a9565b86634e487b7160e01b5f5260416004525ffd5b9285945091610a5f7f1491961bd18bcd6935b573c2502bc912f8a2f44f5c3ca2977c662a4d0486f04e929860086108d798950154906111ff565b97835f5281526109ee60405f206113ea565b506009840154151561085c565b5050505050905b80548211610b48575b505080151580610b3c575b610aa4575b60015f55005b610ab081600254611232565b6002555f80808084335af1610ac3611496565b5015610b01576040519081524260208201527f31513205f2892b167c848b99c751aabdc71b5fabbe706ebf0916c76db36acb3560403392a280610a9e565b60405162461bcd60e51b8152602060048201526013602482015272119959481d1c985b9cd9995c8819985a5b1959606a1b6044820152606490fd5b50600254811115610a99565b558180610a8e565b5050505050610b5e9061120c565b906108d9565b90610a85565b508154600a81018091116104315781106107f8565b505a606460015404106107f2565b346104d65760603660031901126104d6576004356001600160a01b03811681036104d657610bb961115e565b90303303610bce5761001a916044359161139a565b60405162461bcd60e51b815260206004820152600960248201526827b7363c9039b2b63360b91b6044820152606490fd5b346104d6576020806003193601126104d657600435610c1c6112f4565b5f8181526005835260409020546001600160a01b039190610c409083161515611315565b805f526005835260ff600760405f20015416600381101561044557610c659015611358565b805f526005835260405f2092600684015462093a808101809111610431574211610efe57826001850154168015908115610ef4575b5015610ea6576004840183815416906040516370a0823160e01b81523360048201528381602481865afa9081156104e2575f91610e79575b5060058701928354809210610e2957604051636eb1769f60e11b81523360048201523060248201528581604481855afa80156104e25783915f91610df8575b5010610da75790610d28918789541690339061123f565b600286019480808088541698610d46600382019a8b5490339061139a565b60078101600160ff1982541617905554169654169654915416915492604051968752860152604085015260608401524260808401527f60b7113981128c0b499d9ac221fe6556cbc4ab7387ba512a7fedda7f0792bf0360a03394a460015f55005b60405162461bcd60e51b8152600481018690526024808201527f496e73756666696369656e7420616c6c6f77616e636520666f7220627579207460448201526337b5b2b760e11b6064820152608490fd5b809250878092503d8311610e22575b610e1181836111dd565b810103126104d6578290518a610d11565b503d610e07565b60405162461bcd60e51b815260048101869052602260248201527f496e73756666696369656e742062616c616e636520666f722062757920746f6b60448201526132b760f11b6064820152608490fd5b90508381813d8311610e9f575b610e9081836111dd565b810103126104d6575187610cd2565b503d610e86565b6084906040519062461bcd60e51b82526004820152602160248201527f4e6f7420617574686f72697a656420746f2066696c6c2074686973206f7264656044820152603960f91b6064820152fd5b9050331485610c9a565b6064906040519062461bcd60e51b82526004820152601160248201527013dc99195c881a185cc8195e1c1a5c9959607a1b6044820152fd5b346104d6575f3660031901126104d6576020604051605a8152f35b346104d6575f3660031901126104d6576020600154604051908152f35b346104d6575f3660031901126104d6576020600254604051908152f35b346104d6575f3660031901126104d657602060405160968152f35b346104d6576020806003193601126104d657600435610fc36112f4565b5f8181526005835260409020546001600160a01b0390610fe69082161515611315565b815f526005835260ff600760405f2001541660038110156104455761100b9015611358565b815f526005835260405f20908082541633036110e257600682015462093a8081019081811161043157621275000180911161043157421161109d5790611060600792600283015416600383015490339061139a565b01805460ff1916600217905560405142815233927fcdc2a0009ea4fcb77753d005f40262a263915c174abf67d14f697a1079a791e291a360015f55005b60405162461bcd60e51b815260048101859052601860248201527f477261636520706572696f6420686173206578706972656400000000000000006044820152606490fd5b60405162461bcd60e51b815260048101859052601b60248201527f4f6e6c79206d616b65722063616e2063616e63656c206f7264657200000000006044820152606490fd5b346104d6575f3660031901126104d6576020600454604051908152f35b346104d6575f3660031901126104d6576020906003548152f35b602435906001600160a01b03821682036104d657565b346104d6575f3660031901126104d6576020604051600a8152f35b346104d6575f3660031901126104d657602060405162093a808152f35b610140810190811067ffffffffffffffff8211176111c957604052565b634e487b7160e01b5f52604160045260245ffd5b90601f8019910116810190811067ffffffffffffffff8211176111c957604052565b9190820180921161043157565b5f1981146104315760010190565b9060038110156104455760ff80198354169116179055565b9190820391821161043157565b6040516323b872dd60e01b60208201526001600160a01b03928316602482015292909116604483015260648083019390935291815260a081019181831067ffffffffffffffff8411176111c9576112989260405261129a565b565b905f602091828151910182855af1156104e2575f513d6112eb57506001600160a01b0381163b155b6112c95750565b604051635274afe760e01b81526001600160a01b039091166004820152602490fd5b600114156112c2565b60025f54146113035760025f55565b604051633ee5aeb560e01b8152600490fd5b1561131c57565b60405162461bcd60e51b815260206004820152601460248201527313dc99195c88191bd95cc81b9bdd08195e1a5cdd60621b6044820152606490fd5b1561135f57565b60405162461bcd60e51b81526020600482015260136024820152724f72646572206973206e6f742061637469766560681b6044820152606490fd5b60405163a9059cbb60e01b60208201526001600160a01b039092166024830152604480830193909352918152608081019167ffffffffffffffff8311828410176111c9576112989260405261129a565b60095f918281558260018201558260028201558260038201558260048201558260058201558260068201558260078201558260088201550155565b5f60443d1061148257604051600319913d83016004833e815167ffffffffffffffff918282113d6024840111176114855781840194855193841161148d573d850101602084870101116114855750611482929101602001906111dd565b90565b949350505050565b50949350505050565b3d156114d0573d9067ffffffffffffffff82116111c957604051916114c5601f8201601f1916602001846111dd565b82523d5f602084013e565b606090565b918260405191604083528051908160408501525f5b8281106117695750505f606082850101524260208401528260607f7feca401b2b1944352662d64b7240ef03b2bb2af3fbbcc8690209ddef61e09ff948593601f80199101168101030190a26009820154600a116115915791600892815f52600560205261155960405f206113ea565b608060405160408152601360408201527213585e081c995d1c9a595cc81c995858da1959606a1b6060820152426020820152a2015490565b5060045461159e8161120c565b60045560018060a01b0382541660018060a01b0360018401541660018060a01b0360028501541690600385015460018060a01b0360048701541660058701549060ff6007890154169260088901549560098a015495600187018711610431576040519861160a8a6111ac565b8952602089015260408801526060870152608086015260a08501524260c085015260038110156104455760e0840190815261010084019283526001610120850192018252845f52600560205260c060405f209460018060a01b038151166bffffffffffffffffffffffff60a01b90818854161787556001870160018060a01b03602084015116828254161790556002870160018060a01b036040840151168282541617905560608201516003880155600487019060018060a01b036080840151169082541617905560a081015160058701550151600685015551916003831015610445576116fd6009936007860161121a565b51600884015551910155600960018060a01b0383541692015460018101809111610431577fc741ddaee04b453c9f8ab93e4ea1cd7e393764f5de99302e1d12868c0946d4cc604085928151908152426020820152a45f52600560205261176560405f206113ea565b5f90565b602082820181015160608784010152879450016114ea56fea2646970667358221220ebf11860be7c5b08b5582683568a5c5f33aca78c819b99aa800b22dc74825e3564736f6c63430008140033",
  "linkReferences": {},
  "deployedLinkReferences": {}
}